:020000040000FA
:0600000091EF0EF012006A
:020008001200E4
:020018001200D4
:06002A0002004A1D000067
:10003000CA01000011000000481D00006E00000011
:0400400002000000BA
:0C004400FAEC05F0060EE1260001635105
:1000500005E100EC05F051EC05F050D1060E010170
:10006000FC5D01E24BD16D50020B01E047D1400E27
:10007000E66E080EE66E010EE66E80EC0BF0F6EC16
:1000800006F0000901E1EFD08C92D58E0101D26B10
:1000900001013C51040A70E0070A32E0010A15E050
:1000A000030A03E0010A68E067D012EC07F0E66A91
:1000B00088EC06F00D0E6CEC06F050E0420EDF5CB2
:1000C00053E0440EDF5C58E155D00AEC07F003E141
:1000D0008C9E8C8E0BD0420EDF5C03E18C9C8C8C52
:1000E00005D0440EDF5C02E18C9A8C8A01EC07F0AB
:1000F00035E0420EDF5C38E0440EDF5C3DE13AD093
:100100000AEC07F003E18C9E8C8E0BD0420EDF5C74
:1001100003E18C9C8C8C05D0440EDF5C02E18C9A50
:100120008C8A01EC07F003E18C9E8C8E0BD0420E82
:10013000DF5C03E18C9C8C8C05D0440EDF5C02E11B
:100140008C9A8C8AE8EC05F0230EE66E1A0EE66EA9
:1001500088EC06F0230E6CEC06F003E18C9E8C8E8E
:100160000BD0420EDF5C03E18C9C8C8C05D0440EDE
:10017000DF5C02E18C9A8C8A01018851425D1EE0AD
:1001800042C1E6FF0F0E91EC06F042C1E6FF0F0EF2
:1001900014EC06F05AEC06F0E55242C188F10E0E5E
:1001A000E66ED8EC09F0E5520101816FE00E811591
:1001B000026EE00E4215025CF2E10189445153E007
:1001C0004451D00A3CE0700A35E0200A2DE0820A52
:1001D00018E0010A06E0C30A46E19FEC09F0C4D921
:1001E00042D001BB0BD0030E846F45C185F145C1E0
:1001F000E6FFD8EC09F0E5520101866F0189018B19
:1002000032D046C1E6FF45C1E6FFB3EC09F0E55246
:10021000E55246C1E6FF45C1E6FF76EC05F0E55242
:10022000E5525AEC06F004D046C1E6FF47EC0AF06E
:10023000E55219D06FEC0AF00101866F13D0050E5C
:10024000E66EE66ACA0EE66E010EE66E830EE66E96
:10025000010EE66E9DEC0DF0026E060EE15E0250A0
:100260000101886B018952D8030A08E0010A0BE0FA
:10027000030A0EE122EC06F0900E08D022EC06F004
:10028000900EB7EC06F022EC06F0940EB7EC06F0F8
:10029000F2A40CD00101D12BD15107E18C808C82CA
:1002A000D59EFE0ED16F010ED26FF2940101015165
:1002B000100B01E0010E026E0151060BE842021024
:1002C0001DE004010CBF1AD0400EE66E480EE66E2B
:1002D000010EE66E50EC0BF0F6EC06F00101486BF7
:1002E000019301950199019B8C90D58E0101D26BF0
:1002F0000101846B0101D86901017C6B060EE15C90
:1003000002E2E16AE552E16EFFEF05F001010193BF
:10031000019581BE06D00151060BE84201094AEC65
:1003200006F081BC06D00151060BE84202094AECF6
:1003300006F00151060BE8421200FAEC05F0060E39
:10034000E126050EDB6AFF0E0101D85D01E1D86BE5
:10035000010EEDEC05F0080B08E0200EF36E020E26
:10036000F3CFDBFF040EF36E04D0020EDB6AF36EF4
:10037000040EF3CFDBFF020EDB5006E0040EEDECC3
:1003800005F0400B06E109D0010EEDEC05F0100B75
:1003900004E0DE52100EDD6E02D0010EDB6A040EA8
:1003A000EDEC05F00F0BE76E030EE7CFDBFF340E2D
:1003B000D880D855026E040EDB50D880025459E222
:1003C000030EDBCFE6FF010EDBCFE6FF020EDB50B4
:1003D000800FE552E724E552E72467EC06F0E9BE1A
:1003E000EA6819EC06F0DF6A040EDB50DF5C0AE213
:1003F000C4EC06F0E9BEEA6819EC06F0050EDB2A4B
:10040000DF2AF2D7020EDB5007E1050EDB50020FA8
:10041000E76E050EE7CFDBFF050EDB2A010EDB5092
:100420000FE1DF6A030EDB50DF5C0AE2C4EC06F08A
:10043000E9BEEA6819EC06F0050EDB2ADF2AF2D7DE
:10044000D8C1E9FFEA6AE9BEEA68480EE926010E6A
:10045000EA22EF6AC9EC06F0030EE66E1C0EE66EA9
:10046000DEEC09F0B2DBA9C17FF1AAC180F1ABC11A
:1004700081F1060EE15C02E2E16AE552E16EBFD372
:10048000FAEC06F0FE0EDB50DF6EFD0EDBCFE6FF72
:10049000FE0EDB50E552E724DF5C13E260EC06F071
:1004A000EF50E66EFE0EDB50DF5CE76EFB0EDBCF3F
:1004B000E9FFFC0EA7EC06F0E552E750EF6EDF2AED
:1004C000E4D7E5529CD3FAEC06F0928292848A88B3
:1004D0009398E66AE66A010EE66EE9EC0DF0F6EC3A
:1004E00006F093809392DF6A400EDF5C0BE2E8DB5C
:1004F000EF6ADF50EA6A480FE96E010EEA22EF6AFE
:10050000DF2AF2D7D76AD66AD596D584D582D58028
:10051000D59AF168F09EF092F0880F0EC16E070E2A
:10052000B46E898A8D808D828D84938C938E929AFD
:100530009690969296940101019D8C828C80959064
:10054000959292888C8E959E8C8C959C8C8A959A8F
:1005500094908B90019301950199019B05D8D08EC1
:10056000F28CF28EE5524BD345DB020EE1269FEC76
:1005700009F0800EE66EE66A0FDBE552E552E76EA3
:10058000010EE7CFDBFFDF6ADF50026E036AD8900F
:10059000035004E6FA0E025C000E035802E2DF2A62
:1005A000F3D7010EDB5004E00F0E0BDB0101DC6F13
:1005B0000101DC8FDC9DDC9BDC97DC99DC85010E86
:1005C000DB5004E1DCC1E6FF0F0E2EDBC7DB01E0F0
:1005D0000CDB0001635118E0010EDB5004E02B0E30
:1005E000F0DA0101E06F0101E081E083E085E0875E
:1005F000E089010EDB5004E1E0C1E6FF2B0E14DBC5
:10060000E0C1E6FF2B0E8DDB0101E385E381E3878B
:10061000E383E3C1E6FF0C0E84DB0101070EE46F08
:10062000E4C1E6FF0D0E7DDB010EDB500DE0600E38
:100630005EDBE66E600E75DB700E59DBE66E700EEB
:10064000E66EB3EC09F00FD00101896B89C1E6FFBA
:10065000600E28DB700E26DB600EE6DA89C1E6FF4D
:10066000700EE66E43DAE552E552D6DA09E0200E66
:100670003EDB210E40DB220E42DB230E4EDB03D09D
:1006800056DB200E30DBB9DB200E3DDBC5DA09E09E
:10069000240E2DDB250E2FDB260E31DB270E3DDB56
:1006A00003D045DB240E1FDBA8DB240E2CDBB4DAE1
:1006B0000CE0E66A45DAE5520101896F010E1BDBA9
:1006C000020E1DDB030E29DB04D031DBE66A27DADC
:1006D0007CDA93DBE66AC5EC09F077DA9DDA09E0AB
:1006E000040E05DB050E07DB060E09DB070E15DB26
:1006F00003D01DDB040EF7DA80DB98DB09E0080E7F
:10070000F6DA090EF8DA0A0EFADA0B0E06DB03D077
:100710000EDB080EE8DA71DB080E88DB09E0100E4C
:10072000E6DA110EE8DA120EEADA130EF6DA03D080
:10073000FEDA100ED8DA61DB100E78DB09E0140E59
:10074000D6DA150ED8DA160EDADA170EE6DA03D094
:10075000EEDA140EC8DA51DB140E68DB09E0180E6D
:10076000C6DA190EC8DA1A0ECADA1B0ED6DA03D0A8
:10077000DEDA180EB8DA41DB180EC5DA0101A30E75
:10078000896F090E8A6F120E8B6F340E8C6F040EF8
:100790008D6F8E6B010E8F6F020E906F030E916F37
:1007A000040E926F050E936F060E946F070E956FF1
:1007B000010EDB501BE0310E9ADA320E9CDA330E5A
:1007C0009EDA340EAADA350EE9DA360EEBDA370E97
:1007D000EDDA380EEFDA390EF1DA3A0EF3DA3B0ED3
:1007E000F5DA3C0EF7DA3D0EF9DA03D0FBDA310E1A
:1007F0007ADA18DB400EB6DA0101220E896F8A6BB5
:10080000640E8B6F680E8C6F020E8D6F8E6B110EE7
:100810008F6F220E906F330E916F440E926F550EB4
:10082000936F660E946F770E956F010EDB501BE091
:10083000410E5DDA420E5FDA430E61DA440E6DDA84
:10084000450EACDA460EAEDA470EB0DA480EB2DA32
:10085000490EB4DA4A0EB6DA4B0EB8DA4C0EBADAF2
:100860004D0EBCDA03D0BEDA410E3DDADBDA420EC1
:1008700079DA0101AA0E896F030E8A6F330E8B6F2E
:100880008C6F080E8D6FAA0E8E6FBB0E8F6FCC0E05
:10089000906FDD0E916FEE0E926F93690A0E946F5A
:1008A0000B0E956FBFDA440E5DDA010EDB501BE0D4
:1008B000510E1DDA520E1FDA530E21DA540E2DDAC4
:1008C000550E6CDA560E6EDA570E70DA580E72DA72
:1008D000590E74DA5A0E76DA5B0E78DA5C0E7ADA32
:1008E0005D0E7CDA03D07EDA510EFDD9ABD9410E14
:1008F000E66EDEEC09F069D90101DF8F010EDB50F5
:100900000FE0280EF4D9290EF6D92A0EF8D960D9AD
:10091000030EE66E280EE66EC5EC09F067DA02D02B
:10092000E66A12D8E5520101DC9FDC9DDC9B5DD9B3
:100930000101886B8BD901E058D9020EE15C02E21B
:10094000E16AE552E16E5BD155D9040EE126010161
:10095000DC8FDC9DDC9B02DA01E047D90101DD6B15
:100960000101DE6B0101DF6B0101DD9FDD9D0101F6
:10097000DE95DE83DE91DE9BDE89DE970101DF9569
:10098000DF83DF910101DE8F0101DF8FFE0EDB507F
:1009900015E0010A0EE0020A07E0040A13E1C00EA6
:1009A0000101DD15070F0DD0C00E0101DD15030F8C
:1009B00008D0C00E0101DD15010F03D0C00E0101EA
:1009C000DD15DD6FDFC189F1DEC18AF1DDC18BF19B
:1009D000FFD8030EE66E280E96D90101DC9FDC9D40
:1009E000DC9BBCD901E001D9030EE66EF1D8280EDC
:1009F0007AD9040EE15C02E2E16AE552E16EFFD0D1
:100A000080A805D00101DA6B010ED96F05D080B83E
:100A100003D00101010EDA6F0101DA51D91540E06E
:100A2000D96BD72BD751040801E2D76BD751040AF1
:100A30002BE0070A20E0010A16E0030A0CE0010A95
:100A400001E01200898A8D808D828D840101019DD3
:100A50000101D76B1200899A8D808D8215D9800E85
:100A6000D66F010E0FD0899A8D908D820DD9C00E50
:100A7000D66F020E07D0899A8D908D9205D9FA0E05
:100A8000D66F030ED76F1200899A8D908D928D9438
:100A90000101018D0101E00ED56FD669040ED76FFB
:100AA0001200010101AD21D00101D32B000ED4238E
:100AB000D351D4111AE1D5C1D3F1D6C1D4F101017A
:100AC000C951020A0DE0030A06E0010A0DE18C9EFD
:100AD0008C8E010E03D08C9C8C8C020EC96F120080
:100AE0008C9A8C8AC96B1200C96B120083D9F250A0
:100AF000DF6EFE0EDB50A96EFD0EDB50A86EA69ECB
:100B0000A69CA684F29E550EA76EAA0EA76EA6827C
:100B1000A6B2FED7A694DF50F26EE55270D06AD925
:100B2000DF6AFB0EDB50DF5C09E297D8EF50E66E20
:100B3000FE0EDB50DF2478D8DF2AF3D7E5525FD0F2
:100B400059D8FE0EDB50A96EA69EA69CA680A85082
:100B500056D050D9DF6AFB0EDB50DF5C0BE2FE0E95
:100B6000DB50DF242ED8E66E78D8E552E750EF6EE2
:100B7000DF2AF1D7E55243D000D97DD802E2DBD895
:100B8000FCD7DFCFE6FF800E4FD8020EE15C02E219
:100B9000E16AE552E16E33D0F0D86DD802E2CBD8ED
:100BA000FCD7800E0ED8DF5C02E1010E01D0000EF2
:100BB000026E020EE15C02E2E16AE552E16E025071
:100BC0001ED0E66EBDDFE552120010D9E5521200CC
:100BD000890EE66E010EE66E1200E76EFD0EDBCFAB
:100BE000E9FFFE0EB4D8EF501200DCC1E6FF0F0E95
:100BF00091EF06F0D9CFE6FFE1CFD9FF1200E55221
:100C0000E7CFD9FF12000101896B080E8A6F8B6B49
:100C10008C6B010EDB5012000101896B8A6B8B6BB0
:100C20008C6B010EDB501200E66E60DFE552E55280
:100C30001200480EE926010EEA22E552E750EF6E57
:100C4000D82B1200A6D80D0EE66E12000E0EE66E20
:100C5000D8EC09F0E552E00B1200DF50E76EFC0E15
:100C6000DBCFE9FFFD0EA7EF06F093D89DEC01F076
:100C7000E552E5521200FD0EDB50F36E010EDBCFA4
:100C8000F4FFF350F45C12008D840101018D010129
:100C9000D56B1200030BF36EF346F90E0115F3103A
:100CA000016F12003ED889C1E6FF1200DF6E400ED0
:100CB000DF5C1200800EE66EE66A5EDFE55212002F
:100CC000DF50EA6A080FE96E010EEA221200E66EB2
:100CD000D8C1E9FFEA6A1200E66EE66800EC0AF0A5
:100CE00074DF56EF06F0E66E1ADFE5EF05F069DF18
:100CF0000101896F120065DF01018A6F120061DF57
:100D000001018B6F1200E66EC5EC09F0E5EF05F00E
:100D100040EC02F05ADFE8EF05F053DF01018C6F81
:100D20001200E66EB3EC09F0E552E5521200040E33
:100D3000E66EE8EF05F0FE0EDBCFE6FF010EDB50BE
:100D4000E552E7243EDFDF26010EDB2A1200DBCF6F
:100D5000EAFFE750E926000EEA22120046DF76DFBE
:100D600080081200E66E00EC0AF0E5EF05F0E66E92
:100D7000F1EC09F02ADF35EF06F03CDF020EE12648
:100D8000DF6A010EDB6A1200050EDB5026DF67EF1B
:100D900006F0A90EE66E010EE66E120012DF0101EA
:100DA0008D6F12000EDF01018E6F12000ADF01014C
:100DB0008F6F120006DF0101906F120002DF010148
:100DC000916F1200FEDE0101926F1200FADE010146
:100DD000936F1200F6DE0101946F1200F2DE010142
:100DE000956F12000D0EE66EE8EF05F0E552E55244
:100DF000E5521200FFDEE6521200EADE040EE66E55
:100E00001200E6DE160EE66E0D0EE66E81DF160EA1
:100E10006CEF06F0DDDE090EE66EE66A79DF090E9C
:100E20006CEF06F0D5DE0D0EE66E12006CDF03EF00
:020E300006F0CA
:0E0E32006C500BE1040100513C0BE842E84219
:100E40000D0802E12BEF07F05DEF07F0040E6C5C7C
:100E500001E142D81200D9CFE6FFE1CFD9FFE65237
:100E60000101F46BF56BFA6BFB6B5FEC08F0DF6A6A
:100E7000DF50026E036A010E025C000E03581AE294
:100E80000101F55117E1F76ADF34FE0BF736F66E14
:100E9000FA0EF626190EF7220900F5CF02F0080027
:100EA000F5CF03F004D003C0FAFF0250F96EFBDF68
:100EB000DF2ADED799D8E552F6D0020E0101F45DA3
:100EC00009E168D8040100BD02D0C80E01D0880E27
:100ED000006F12002DEF08F0040E0101FC5D09E126
:100EE00012C46EFF6E50000802E2050E01D0030E20
:100EF000FC6F0101F40509E10AD8040104BD02D028
:100F0000C80E01D0880E046F12002DEF08F0C4D86F
:100F10000101080EFA5D000EFB5905E2FAC1DEFF81
:100F2000FBC1DDFF03D0080EDE6EDD6A0401049311
:100F30000491010EDB500413DFCF05F4000EDB50EB
:100F40000101FA5F010EDB50FB5B180EF86F040E17
:100F5000F96F0101FDA30CD098D815E0F6C1F6FF9A
:100F6000F7C1F7FF0800F55080D8F6E2DB06F4D7AA
:100F70008CD809E0F6C1E9FFF7C1EAFFEF5075D858
:100F8000F7E2DB06F5D7020EE15C02E2E16AE55228
:100F9000E16E89D081D8030E04010015E76E010EC1
:100FA000E7CFDBFF01C4DFFFDE500101FA27DD5090
:100FB000FB23180EF66F040EF76F67D80EE0F6C12C
:100FC000E9FFF7C1EAFFEF50F8C1E9FFF9C1EAFF15
:100FD000EF6E6DD8F2E2DB06F0D7020EE15C02E2C2
:100FE000E16AE552E16E5FD06D980101F55105E1CE
:100FF00044D8840E006F04011DD0040110AF1CD032
:101000000101FA510401165D0101FB510401175958
:1010100004E216C4FAF117C4FBF179DF0101010EF5
:10102000F46F2BD8800E006F0401180E066F040EAB
:10103000076FC80E046F12000101020EF46F040165
:10104000056BC80E046F0401080E016F180E026FC5
:10105000040E036FC80E006F12000101F46B0DD86F
:10106000880E006F0401046B1200F8C1E9FFF9C19A
:10107000EAFFEF6E010157EF08F00401080E016F5F
:10108000100E026F040E036F1200D9CFE9FFDACF02
:10109000EAFFEE50ED101200D9CFE6FFE1CFD9FF05
:1010A000020EE1261200E552E7CFD9FF1200F82B1D
:0E10B000000EF923F62BF723DF06010E1200C7
:0210BE0004012B
:1010C0001051600BE842E842E842E842E842000979
:1010D00001E012001151070A40E00B0A3EE0070A46
:1010E00033E0010A23E00B0A1FE0020A1DE0030AB5
:1010F00019E0080A10E0010A0CE00F0A08E0030AF0
:1011000001E0120014D90101040EFC6F1200AEEFD1
:1011100008F0E5EF08F00BD90101FE0EF66F010EA5
:10112000F76F0CD000EF09F034EF09F004D901019A
:10113000F66FF76BFF0EF627010EF7230101FD9303
:101140000101010EFA6F1200F6D8EA6AFF0FE96E8C
:10115000010EEA2212C4EFFF12001200800E0401F9
:10116000105D32E11351030A1FE0010A0AE0030A8D
:1011700029E1DDD80101160EF66F190EF76F120E78
:101180001ED0AFD8F00EF626190EBDD8020E010102
:10119000F76AF625F66EF751F7220900F5CFFAF156
:1011A0000A00F5CFFBF10ED09CD8F40EF626190EEE
:1011B000AAD8F6C1F6FFF7C1F7FF0800F550010104
:1011C000FA6FFB6B0101FD831200B1D80F0EE66EC2
:1011D000710EE66E0F0E9FD8010EE66EFF0EE66EE4
:1011E000010E99D812C4FEF10401125104E101016B
:1011F000050EFC6F12000101060EFC6F3BEF0BF0B9
:101200000401186B196B040110511F0B020A11E045
:10121000030A0DE0010A1AE18AD880A402D0040171
:1012200018810101FDA112D0040118830FD07FD8CD
:101230000DD04BD801E0010E5DD8F8C1E9FFEA6E90
:10124000EF50040B03E00401010E186F0101F505D6
:101250000AE10101180EF66F040EF76F0101FD930C
:101260000101020EFA6F1200040112050EE1105185
:101270001F0B00090AE15BD8030E0401115D03E1B5
:101280000101FD8102D00101FD91040112511CE117
:1012900010511F0B020818E114510F0B000914E044
:1012A00014D801E0010E26D8030E0401115D04E1FB
:1012B000840E38D8EF6E120014AF03D033D8EF6A23
:1012C0001200880E2FD8EF6E120035D80F0B080DC4
:1012D000F350036A000F026E040E03221451800BB8
:1012E000120025D804011251F66EF76AD890F6362E
:1012F000F7361200040DF35001010224F86F000EBE
:101300000320F96F1200F7220900F5CFF6F10A0069
:10131000F5CFF7F11200E66E76EC0CF0E552E552EF
:10132000E5521200F8C1E9FFF9C1EAFF120001011C
:0E133000010EF56F1200FBDF040114511200D4
:02133E008A988B
:10134000C00E01D98A880001706B7051026E036A69
:10135000D890035004E6FF0E025C000E035802E230
:10136000702BF3D7120012D98A98020EECD800091C
:10137000FCE115D9FEE1FD0EDBCFE6FF1BEC0EF024
:10138000E5520009F8E18A8806D1D8D88A98020E79
:10139000DAD80009FCE103D9FEE1DF6AFD0EDB507B
:1013A000DF5C04E2E8D8FEE1DF2AF8D78A88C9D0FA
:1013B000C5D88A98030EC7D8BAD8E2D0BFD88A98C1
:1013C000030EC1D80009FCE1EAD8FEE1DF6AFD0E98
:1013D000DB50DF5C03E2C7D8DF2AF9D7C4D88A889C
:1013E000B0D0ACD88A98DBD8FEE1DF6AFD0EDB50C6
:1013F000DF5C03E2B8D8DF2AF9D7B5D88A88A1D054
:10140000C5D8020EE126FE0EDB50FF0828E167D8A2
:10141000DF6EDFB402D0400E1ED0DFB802D0420E25
:101420001AD0DFBC02D0440E16D0540EDF1417E0E1
:10143000E66A300E8DD80001706B7051026E036A3F
:10144000D890035004E6FF0E025C000E035802E23F
:10145000702BF3D7400EF36EFE0EF3CFDBFF8A98AE
:101460009ED8FEE1DF6AFD0EDB50DF5C04E283D82C
:10147000FEE1DF2AF8D78A88FE0EDB50026E020EEC
:10148000E15C02E2E16AE552E16E025084D056D896
:1014900026D8DF6EFE0EDBA008D0DFA406D05DD814
:1014A000300E56D81CD8040BFDE1FE0EDBA208D08E
:1014B000DFA806D052D8400E4BD811D8100BFDE152
:1014C000FE0EDBA408D0DFAC06D047D8500E40D8C3
:1014D00006D8400BFDE18A982AD88A8832D02ED8C7
:1014E0008A98A00E30D84CD029D8FC0ECF6E170E9B
:1014F000CE6ECD80DF6AFE0EDB50DF5C09E29EA07F
:10150000FED79E90FC0ECF6E170ECE6EDF2AF3D75D
:10151000CD9017D0DF50E76EFB0EDBCFE9FFFC0E5E
:10152000DBCFEAFFE750E926000EEA221200FE0EAA
:10153000DBCFE6FF1BEC0EF0E552120027D8E65297
:101540001200E55228D0E66E1BEC0EF0E5521200B8
:10155000E66E09DFE552E5521200010EE66EC4DFC9
:10156000E552E66A12006AEC0EF0E66ED3DFE55251
:10157000E750EF6E1200CEDFEF50E5DF00091200FA
:101580006AEC0EF0DF6E8A88DF50DBD7D9CFE6FF3A
:10159000E1CFD9FF1200E552E7CFD9FF1200C7DF34
:0415A000000912002C
:0C15A400040110511F0B010801E01200AF
:1015B000145101E01200060E115D24E11351230ABB
:1015C0001FE0010A0DE0030A1BE1DBD80101FE0563
:1015D00005E101013A0EF66F190EF76F090E0DD0F5
:1015E000D0D80101FE0505E10101D30EF66F190EF9
:1015F000F76F0101FE0504E11D0E0101FA6FFB6B9F
:101600000101FD8304011051600BE842E842E84209
:10161000E842E842010801E0120011510B0A25E0FE
:10162000080A17E0090A11E0080A09E00B0A05E0B8
:10163000080A01E0120039EF0BF03AEF0BF0A1D8E5
:101640000101670EF66F000E09D09BD813C467F036
:10165000120097D80101680EF66F000EF76F0101B6
:10166000FD930101010EFA6F12008BD812C468F0CD
:101670001200120012000001696B1E0E716E04014F
:10168000400E096F200E0A6F040E0B6F880E086F54
:101690000401600E0E6F040E0F6F400E0C6F1200EF
:1016A000D9CFE6FFE1CFD9FFE652FC0EDB50400870
:1016B00005E2400EF36EFC0EF3CFDBFFDF6AFC0E9B
:1016C000DB50DF5C0FE2DF5050D8EF50E66EDF50AA
:1016D000EA6A600FE96E040EEA22E552E750EF6E07
:1016E000DF2AEDD7FC0EDBCF0DF4400E04010C1702
:1016F0000C7D880E0C13E552E552E7CFD9FF12009E
:10170000D9CFE6FFE1CFD9FF0001696B040108BF23
:1017100026D0FC0EDBCF02F00951D880025403E240
:10172000FC0E09C4DBFF0001696BFC0EDB50695D38
:101730000FE26951EA6A200FE96E040EEA22EF50C7
:10174000E66E695112D8E552E750EF6E692BEDD77E
:101750000401400E096F0817087D880E0813000168
:101760006951E552E7CFD9FF1200E76EFD0EDBCFDE
:10177000E9FFFE0EDBCFEAFFE750E926000EEA2282
:0A17800012000101020EF56F1200C5
:06178A0080A204D06DB640
:1017900004D00FD802D06DB613D80101FC0508E1C2
:1017A0006DBA06D0686A696A69806988020EFC6F42
:1017B00012006D6A696A6D860101010EFC6F1200EC
:1017C0006D6A696A0101FC6B1200E0EF0BF0010128
:1017D000FC5101E112006850040B04E06950040B55
:1017E00001E041D86DB212006850010B04E069506D
:1017F000010B01E059D86850100B04E06950100B40
:1018000001E024D86850400B04E06950400B01E02F
:1018100040D86850200B04E06950200B01E03BD811
:101820006850020B04E06950020B01E03BD8030E44
:101830000101FC5D01E212006850080B06E06950EE
:10184000080B03E019EC07F06896120069846898A9
:101850006D82A19AF290A08AF2860300F2B007D8B6
:10186000A09AF29612006D92699468941200010198
:10187000FDA10ED0F8DF6D840001080E6A6F070E1F
:101880006B6F6A07000E6B5B6A516B11FAE16D9426
:101890001200689C120070A003D02DEC08F070902C
:1018A000689A1200689212006A6A686A9F0E6B6EEC
:1018B0007B0E696E6E6A0F0EE66E710EE66E0F0E8F
:1018C000E66E14D8E552E552E552160E706E68A623
:1018D00002D06896FCD76D982DEC08F00101FD91BF
:1018E0000101FE6B0101030EFC6F1200D9CFE6FF70
:1018F000E1CFD9FFFD0EDBCFE9FFFE0EDBCFEAFF24
:10190000FC0EDB5004E0EE6AFC0EDB06F9D7E55274
:06191000E7CFD9FF120031
:0A1916001201000200000008D804CE
:10192000700000000102000109022900010103808A
:10193000FA0904000002030000000921010000016F
:10194000221D000705810340000107050103400037
:10195000100403090434034D006900630072006F32
:101960000063006800690070002000540065006397
:101970000068006E006F006C006F00670079002047
:101980000049006E0063002E0028034D0043005004
:101990000032003500310035002000420055005370
:1019A0000020004D004F004E00490054004F0052EF
:1019B0000022034D00430050003200350031003555
:1019C0000044004D002D0042004D00200048004919
:1019D0000044000600FF0901A1011901294015007A
:1019E00026FF00750895408102190129409102C027
:0C19F00028192819511955198919A41536
:0419FC000F0EC112F7
:101A00000001636B63EC02F00001646B656B666B55
:101A1000616B626B640E615D000E62591DE2020E25
:101A20008014646F6551645D01E1662B66510A089C
:101A300013E364C065F0320EE66E53EC0EF0E5522F
:101A40008C90320EE66E53EC0EF0E5528C80000165
:101A5000612B000E6223DED765A303D0010E636FF6
:101A60008C9007D80001635101E011D822EC00F0FE
:101A7000F9D7928292840001635108E0140E6F6ED0
:101A80000101FC6B0101FD6B0101FE6B1200C5EC55
:0C1A90000BF06FBE02D0E7EC0BF0120070
:041A9C002A0EF66EAA
:101AA000000EF76E000EF86E01010900F550EF6FA1
:101AB0000900F550F06F03E1EF6701D03DD0090058
:101AC000F550EA6F0900F550EB6F0900F550EC6F27
:101AD00009000900F550E96E0900F550EA6E0900A9
:101AE00009000900F550ED6F0900F550EE6F09008F
:101AF0000900F6CFF1F1F7CFF2F1F8CFF3F1EAC137
:101B0000F6FFEBC1F7FFECC1F8FF0101ED5302E175
:101B1000EE5307E00900F550EE6EED07F8E2EE0730
:101B2000F9D7F1C1F6FFF2C1F7FFF3C1F8FF0101E8
:0A1B3000EF07000EF05BBFD71200B4
:061B3A00D9CFE6FFDACF6F
:101B4000E6FFFA0EE3CFD9FFFB0EE3CFDAFFFC0E80
:101B5000E3CFE9FFFD0EE3CFEAFFE9CFF3FFEACFE2
:101B6000F4FFE950D95CEA50DA580EE3F80EE3507E
:101B700003E1F90EE35024E0F80EE30602E2F90E69
:101B8000E306DECFEEFFF2D7F80EE350D926F90ECA
:101B9000E350DA22DD52F80EE350E926F90EE35065
:101BA000EA22ED52F80EE35003E1F90EE35008E0AB
:101BB000F80EE30602E2F90EE306DDCFEDFFF2D701
:101BC000FF0EE3CFDAFFE552FF0EE3CFD9FFE55278
:021BD000120001
:0E1BD200D9CFE6FFDACFE6FFE1CFD9FFE2CFB1
:101BE000DAFF3F0EC716C66AFD0EDB50C612FB0EAB
:101BF000DB50C712FC0EDB50030A09E0010A04E0C7
:101C0000020A06E1C78C04D0C78CC68801D0C688FA
:101C1000FD0EDB50050A03E0010A03E1928A93827C
:101C200001D093929380949EC68AE552E5CFDAFF65
:061C3000E7CFD9FF12000E
:0A1C3600D9CFE6FFDACFE6FFE1CFD9
:101C4000D9FFE2CFDAFFE652C950DF6E9E96C69EFC
:101C5000FD0EDB50C96EC6AE02D0FF0E03D09EA6AD
:101C6000FED7000EE552E552E5CFDAFFE7CFD9FF08
:021C7000120060
:0E1C7200DACFE4FFE652F092F28EE552E5CFB3
:101C8000DAFF1100D8CFE4FFE0CFE4FFE46EDACF53
:101C9000E4FFE652E552E5CFDAFFE550E5CFE0FF9D
:061CA000E5CFD8FF1000A3
:0A1CA600FF0EE350056EEF0E01D0B3
:101CB000F30EE76EE72E5AEF0EF00C0E046EE76A95
:101CC000E72E60EF0EF0042E5FEF0EF0052E58EFBA
:041CD0000EF0120000
:0C1CD400D9CFE6FFDACFE6FFE1CFD9FF61
:101CE000E2CFDAFFE652C950DF6E9E96C96A9EA621
:101CF000FED7C950E552E552E5CFDAFFE7CFD9FF6D
:021D00001200CF
:0E1D0200000EF36E00EE00F0080E01D8120085
:101D1000EA6002D0EE6AFCD7F350E9601200EE6A86
:021D2000FCD7EE
:0E1D220013EE00F023EE00F0F86A019C4EEC88
:0E1D30000DF0A3EC0EF0FEEC0CF0FBD7120051
:021D3E00FCFCAB
:061D4000FC000404040095
:021D4600120089
:021D480041FA5E
:061D4A00322E31300000D2
:0B1D500001F0000000008000FF010017
:020000040030CA
:0100000024DB
:010001000EF0
:0100020036C7
:010003001EDE
:010005008179
:01000600A158
:010008000FE8
:01000900C036
:01000A000FE6
:01000B00E014
:01000C000FE4
:01000D0040B2
:00000001FF
